{
  "contractName": "Task",
  "abi": [
    {
      "inputs": [],
      "payable": false,
      "stateMutability": "nonpayable",
      "type": "constructor"
    },
    {
      "constant": true,
      "inputs": [
        {
          "internalType": "address",
          "name": "",
          "type": "address"
        }
      ],
      "name": "reliabilities",
      "outputs": [
        {
          "internalType": "uint256",
          "name": "",
          "type": "uint256"
        }
      ],
      "payable": false,
      "stateMutability": "view",
      "type": "function"
    },
    {
      "constant": false,
      "inputs": [
        {
          "internalType": "address",
          "name": "_name",
          "type": "address"
        }
      ],
      "name": "registerWorker",
      "outputs": [],
      "payable": false,
      "stateMutability": "nonpayable",
      "type": "function"
    },
    {
      "constant": false,
      "inputs": [
        {
          "internalType": "address",
          "name": "_name",
          "type": "address"
        },
        {
          "internalType": "uint256",
          "name": "val",
          "type": "uint256"
        }
      ],
      "name": "UpdateWorker",
      "outputs": [],
      "payable": false,
      "stateMutability": "nonpayable",
      "type": "function"
    },
    {
      "constant": true,
      "inputs": [
        {
          "internalType": "address",
          "name": "_name",
          "type": "address"
        }
      ],
      "name": "getReliability",
      "outputs": [
        {
          "internalType": "uint256",
          "name": "",
          "type": "uint256"
        }
      ],
      "payable": false,
      "stateMutability": "view",
      "type": "function"
    }
  ],
  "bytecode": "0x608060405234801561001057600080fd5b50730ea4addc16ecc58a72b0dad9d381844a5e934d5e6000806101000a81548173ffffffffffffffffffffffffffffffffffffffff021916908373ffffffffffffffffffffffffffffffffffffffff1602179055506102b8806100746000396000f3fe608060405234801561001057600080fd5b506004361061004c5760003560e01c8063220ab7211461005157806380356347146100a9578063adba6ced146100f7578063bb0edcfa1461013b575b600080fd5b6100936004803603602081101561006757600080fd5b81019080803573ffffffffffffffffffffffffffffffffffffffff169060200190929190505050610193565b6040518082815260200191505060405180910390f35b6100f5600480360360408110156100bf57600080fd5b81019080803573ffffffffffffffffffffffffffffffffffffffff169060200190929190803590602001909291905050506101ab565b005b6101396004803603602081101561010d57600080fd5b81019080803573ffffffffffffffffffffffffffffffffffffffff1690602001909291905050506101f3565b005b61017d6004803603602081101561015157600080fd5b81019080803573ffffffffffffffffffffffffffffffffffffffff16906020019092919050505061023a565b6040518082815260200191505060405180910390f35b60016020528060005260406000206000915090505481565b80600160008473ffffffffffffffffffffffffffffffffffffffff1673ffffffffffffffffffffffffffffffffffffffff168152602001908152602001600020819055505050565b60018060008373ffffffffffffffffffffffffffffffffffffffff1673ffffffffffffffffffffffffffffffffffffffff1681526020019081526020016000208190555050565b6000600160008373ffffffffffffffffffffffffffffffffffffffff1673ffffffffffffffffffffffffffffffffffffffff16815260200190815260200160002054905091905056fea265627a7a72315820b0a650f36fae3e6ff56a6de3392e09d9f6bac535276d1de0c66f7bd066aef16364736f6c634300050c0032",
  "source": "pragma solidity ^0.5.1;\n\n\n// Worker Manager Contract, that keeps records of registered workers\n\n\ncontract Task {\n\n// Currently only stores the reliabilities but can be used to store hashed certificates and etc for the workers\naddress owner;\nmapping (address => uint256) public reliabilities;\n\n\nconstructor() public {\n    owner = 0x0ea4ADdC16EcC58a72B0DAD9d381844A5E934D5E;\n}\n\n\n\nmodifier IsCreator {\n    require(msg.sender == owner, \"Contract not called by creator\");\n    _;\n}\n\n\n\nfunction registerWorker(address  _name) public {\n\t\treliabilities[_name] = 1;\n\t\t\n\t}\n\nfunction UpdateWorker(address  _name, uint val) public {\n\t\treliabilities[_name] = val;\n\t\t\n\t}\n\t\n// Get Worker reliability\n\nfunction getReliability(address _name) public view returns (uint256 ){\n    return reliabilities[_name];\n    \n}\n    \n    \n    \n}\n\n\n",
  "sourcePath": "/Users/sid_mukkamala/Documents/Thesis2/code/truffleprojects/truffleanew/contracts/TaskManager.sol",
  "compiler": {
    "name": "solc",
    "version": "0.5.12+commit.7709ece9.Emscripten.clang"
  },
  "schemaVersion": "3.0.19",
  "updatedAt": "2020-10-16T09:39:47.615Z",
  "networkType": "ethereum",
  "devdoc": {
    "methods": {}
  },
  "userdoc": {
    "methods": {}
  }
}