{
  "contractName": "TruthDiscovery2",
  "abi": [
    {
      "inputs": [
        {
          "internalType": "address",
          "name": "owner_crwd",
          "type": "address"
        },
        {
          "internalType": "bytes",
          "name": "task_hash",
          "type": "bytes"
        },
        {
          "internalType": "address",
          "name": "requester_add",
          "type": "address"
        },
        {
          "internalType": "uint256",
          "name": "reputation",
          "type": "uint256"
        },
        {
          "internalType": "uint256",
          "name": "deadline",
          "type": "uint256"
        },
        {
          "internalType": "uint256",
          "name": "maxworkers",
          "type": "uint256"
        }
      ],
      "payable": false,
      "stateMutability": "nonpayable",
      "type": "constructor"
    },
    {
      "constant": true,
      "inputs": [
        {
          "internalType": "address",
          "name": "",
          "type": "address"
        }
      ],
      "name": "hashes",
      "outputs": [
        {
          "internalType": "address",
          "name": "",
          "type": "address"
        }
      ],
      "payable": false,
      "stateMutability": "view",
      "type": "function"
    },
    {
      "constant": false,
      "inputs": [
        {
          "internalType": "address",
          "name": "add",
          "type": "address"
        }
      ],
      "name": "Add_worker",
      "outputs": [],
      "payable": false,
      "stateMutability": "nonpayable",
      "type": "function"
    },
    {
      "constant": false,
      "inputs": [
        {
          "internalType": "address",
          "name": "_name",
          "type": "address"
        },
        {
          "internalType": "address",
          "name": "val",
          "type": "address"
        }
      ],
      "name": "UpdateHash",
      "outputs": [],
      "payable": false,
      "stateMutability": "nonpayable",
      "type": "function"
    },
    {
      "constant": false,
      "inputs": [],
      "name": "Activate",
      "outputs": [],
      "payable": false,
      "stateMutability": "nonpayable",
      "type": "function"
    },
    {
      "constant": false,
      "inputs": [],
      "name": "EndEpoch",
      "outputs": [],
      "payable": false,
      "stateMutability": "nonpayable",
      "type": "function"
    },
    {
      "constant": false,
      "inputs": [
        {
          "internalType": "int256",
          "name": "val",
          "type": "int256"
        },
        {
          "internalType": "int256",
          "name": "weight",
          "type": "int256"
        }
      ],
      "name": "sendData",
      "outputs": [],
      "payable": false,
      "stateMutability": "nonpayable",
      "type": "function"
    },
    {
      "constant": true,
      "inputs": [],
      "name": "getFinalTruth",
      "outputs": [
        {
          "internalType": "int256",
          "name": "",
          "type": "int256"
        }
      ],
      "payable": false,
      "stateMutability": "view",
      "type": "function"
    },
    {
      "constant": true,
      "inputs": [],
      "name": "getEpochNum",
      "outputs": [
        {
          "internalType": "uint256",
          "name": "",
          "type": "uint256"
        }
      ],
      "payable": false,
      "stateMutability": "view",
      "type": "function"
    },
    {
      "constant": false,
      "inputs": [],
      "name": "reset",
      "outputs": [],
      "payable": false,
      "stateMutability": "nonpayable",
      "type": "function"
    },
    {
      "constant": true,
      "inputs": [],
      "name": "getVals",
      "outputs": [
        {
          "internalType": "int256",
          "name": "",
          "type": "int256"
        },
        {
          "internalType": "int256",
          "name": "",
          "type": "int256"
        }
      ],
      "payable": false,
      "stateMutability": "view",
      "type": "function"
    },
    {
      "constant": false,
      "inputs": [],
      "name": "Terminate",
      "outputs": [],
      "payable": false,
      "stateMutability": "nonpayable",
      "type": "function"
    }
  ],
  "bytecode": "0x6080604052600060035560006004556000600555600060065560006009556000600d60006101000a81548160ff021916908360038111156200003d57fe5b02179055503480156200004f57600080fd5b5060405162000cd738038062000cd7833981810160405260c08110156200007557600080fd5b810190808051906020019092919080516040519392919084640100000000821115620000a057600080fd5b83820191506020820185811115620000b757600080fd5b8251866001820283011164010000000082111715620000d557600080fd5b8083526020830192505050908051906020019080838360005b838110156200010b578082015181840152602081019050620000ee565b50505050905090810190601f168015620001395780820380516001836020036101000a031916815260200191505b5060405260200180519060200190929190805190602001909291908051906020019092919080519060200190929190505050856000806101000a81548173ffffffffffffffffffffffffffffffffffffffff021916908373ffffffffffffffffffffffffffffffffffffffff1602179055508460029080519060200190620001c39291906200026f565b5083600160006101000a81548173ffffffffffffffffffffffffffffffffffffffff021916908373ffffffffffffffffffffffffffffffffffffffff160217905550826007819055508160088190555080600b81905550806040519080825280602002602001820160405280156200024a5781602001602082028038833980820191505090505b50600c908051906020019062000262929190620002f6565b50505050505050620003f3565b828054600181600116156101000203166002900490600052602060002090601f016020900481019282601f10620002b257805160ff1916838001178555620002e3565b82800160010185558215620002e3579182015b82811115620002e2578251825591602001919060010190620002c5565b5b509050620002f2919062000385565b5090565b82805482825590600052602060002090810192821562000372579160200282015b82811115620003715782518260006101000a81548173ffffffffffffffffffffffffffffffffffffffff021916908373ffffffffffffffffffffffffffffffffffffffff1602179055509160200191906001019062000317565b5b509050620003819190620003ad565b5090565b620003aa91905b80821115620003a65760008160009055506001016200038c565b5090565b90565b620003f091905b80821115620003ec57600081816101000a81549073ffffffffffffffffffffffffffffffffffffffff021916905550600101620003b4565b5090565b90565b6108d480620004036000396000f3fe608060405234801561001057600080fd5b50600436106100a95760003560e01c8063614ac79111610071578063614ac791146101f65780637e20f7921461021b5780639445eb3a1461025f5780639c63197b14610269578063cf54400014610273578063d826f88f14610291576100a9565b806308e3399f146100ae57806315676ba21461013257806324a371381461019657806326cd02f6146101ce57806359d3ce47146101ec575b600080fd5b6100f0600480360360208110156100c457600080fd5b81019080803573ffffffffffffffffffffffffffffffffffffffff16906020019092919050505061029b565b604051808273ffffffffffffffffffffffffffffffffffffffff1673ffffffffffffffffffffffffffffffffffffffff16815260200191505060405180910390f35b6101946004803603604081101561014857600080fd5b81019080803573ffffffffffffffffffffffffffffffffffffffff169060200190929190803573ffffffffffffffffffffffffffffffffffffffff1690602001909291905050506102ce565b005b6101cc600480360360408110156101ac57600080fd5b810190808035906020019092919080359060200190929190505050610350565b005b6101d6610374565b6040518082815260200191505060405180910390f35b6101f461039d565b005b6101fe610503565b604051808381526020018281526020019250505060405180910390f35b61025d6004803603602081101561023157600080fd5b81019080803573ffffffffffffffffffffffffffffffffffffffff169060200190929190505050610514565b005b61026761068e565b005b610271610776565b005b61027b61085e565b6040518082815260200191505060405180910390f35b610299610868565b005b600a6020528060005260406000206000915054906101000a900473ffffffffffffffffffffffffffffffffffffffff1681565b80600a60008473ffffffffffffffffffffffffffffffffffffffff1673ffffffffffffffffffffffffffffffffffffffff16815260200190815260200160002060006101000a81548173ffffffffffffffffffffffffffffffffffffffff021916908373ffffffffffffffffffffffffffffffffffffffff1602179055505050565b81600560008282540192505081905550806004600082825401925050819055505050565b6000806004541415610389576000905061039a565b6004546005548161039657fe5b0590505b90565b6000809054906101000a900473ffffffffffffffffffffffffffffffffffffffff1673ffffffffffffffffffffffffffffffffffffffff163373ffffffffffffffffffffffffffffffffffffffff161461045f576040517f08c379a000000000000000000000000000000000000000000000000000000000815260040180806020018281038252601e8152602001807f436f6e7472616374206e6f742063616c6c65642062792063726561746f72000081525060200191505060405180910390fd5b6000600381111561046c57fe5b600d60009054906101000a900460ff16600381111561048757fe5b14806104b857506002600381111561049b57fe5b600d60009054906101000a900460ff1660038111156104b657fe5b145b6104c157600080fd5b600060058190555060006004819055506001600d60006101000a81548160ff021916908360038111156104f057fe5b0217905550600160035401600381905550565b600080600554600454915091509091565b6000600381111561052157fe5b600d60009054906101000a900460ff16600381111561053c57fe5b146105af576040517f08c379a000000000000000000000000000000000000000000000000000000000815260040180806020018281038252601e8152602001807f436f6e7472616374206e6f7420696e2074686520496e6974205374617465000081525060200191505060405180910390fd5b8073ffffffffffffffffffffffffffffffffffffffff163373ffffffffffffffffffffffffffffffffffffffff1614610633576040517f08c379a000000000000000000000000000000000000000000000000000000000815260040180806020018281038252602581526020018061087b6025913960400191505060405180910390fd5b80600c6009548154811061064357fe5b9060005260206000200160006101000a81548173ffffffffffffffffffffffffffffffffffffffff021916908373ffffffffffffffffffffffffffffffffffffffff16021790555050565b6000809054906101000a900473ffffffffffffffffffffffffffffffffffffffff1673ffffffffffffffffffffffffffffffffffffffff163373ffffffffffffffffffffffffffffffffffffffff1614610750576040517f08c379a000000000000000000000000000000000000000000000000000000000815260040180806020018281038252601e8152602001807f436f6e7472616374206e6f742063616c6c65642062792063726561746f72000081525060200191505060405180910390fd5b6003600d60006101000a81548160ff0219169083600381111561076f57fe5b0217905550565b6000809054906101000a900473ffffffffffffffffffffffffffffffffffffffff1673ffffffffffffffffffffffffffffffffffffffff163373ffffffffffffffffffffffffffffffffffffffff1614610838576040517f08c379a000000000000000000000000000000000000000000000000000000000815260040180806020018281038252601e8152602001807f436f6e7472616374206e6f742063616c6c65642062792063726561746f72000081525060200191505060405180910390fd5b6002600d60006101000a81548160ff0219169083600381111561085757fe5b0217905550565b6000600354905090565b6000600481905550600060058190555056fe4f6e6c79206120776f726b65722063616e207265676973746572207468656d73656c766573a265627a7a72315820ffab2ed2394b147759834fa2f8940cbc7079120ba13078731a1514a00bbf1e5764736f6c634300050c0032",
  "source": "pragma solidity ^0.5.1;\n\ncontract TruthDiscovery2 { \n    \n    address owner;\n    \n    address requester;\n    bytes task;\n    \n    uint epoch_num = 0;\n    \n    int sum_weights = 0;\n    int sum_numerator = 0;\n\n    int finaltruth = 0;\n    \n    // Requires store minimum reputation value required and etc \n    \n    uint min_reputation;\n    uint time_deadline;\n    \n    uint num_workers_registered = 0;\n\n    mapping (address => address) public hashes;\n    \n    uint max_workers;\n    \n    address[]  workers;\n    // Use this to perform TruthDiscovery and measure gas consumption\n    \n    // Have multiple states to figure out what actions are allowed and which arent \n    \n    enum ContractState{Init, InEpoch, EndEpoch, Terminated}\n    \n    // Set first initial state to Init\n    ContractState contract_state = ContractState.Init;\n    \n    \n    \n    // Modifiers to make code readable \n    // Modifier that checks if we are in init state\n    modifier InInitState() {\n        require(contract_state == ContractState.Init, \"Contract not in the Init State\");\n        _;\n    }\n    \n    modifier CanBeActivated() {\n        require(contract_state == ContractState.Init || contract_state == ContractState.EndEpoch );\n        _;\n    }\n    \n    // Create constructor with task details \n    \n    constructor(address owner_crwd, bytes memory task_hash ,address requester_add, uint reputation, uint deadline, uint maxworkers) public {\n        \n        owner = owner_crwd;\n        task = task_hash;\n        requester = requester_add;\n        min_reputation = reputation;\n        time_deadline = deadline;\n        max_workers = maxworkers;\n        workers = new address[](maxworkers);\n        \n    }\n    \n    modifier IsCreator {\n    require(msg.sender == owner, \"Contract not called by creator\");\n    _;\n}\n    \n    // A function that adds workers to this task, can only be performed in the init state\n    function Add_worker(address add) InInitState public {\n        require(msg.sender == add, \"Only a worker can register themselves\");\n        workers[num_workers_registered] = add;\n    }\n\n    function UpdateHash(address  _name, address val) public {\n        hashes[_name] = val;\n        \n    }\n    \n    // Need a function that changes state to begin Epoch\n    function Activate() IsCreator CanBeActivated public {\n        sum_numerator = 0;\n        sum_weights = 0;\n        contract_state = ContractState.InEpoch;\n        epoch_num = epoch_num + 1;\n    } \n    \n    // Ends an epoch \n    function EndEpoch() IsCreator public {\n        contract_state = ContractState.EndEpoch;\n    }\n    \n    // Do the actual truth Disocvery during epoch time, simply add up the weights + weighted values \n    function sendData(int val, int weight ) public {\n        sum_numerator += val;\n        sum_weights += weight;\n\n        // if (num_participants_counter == 5) {\n        //     if (sum_weights == 0) {\n        //         finaltruth = 0;\n        //     }\n        //     else {\n        //     finaltruth = sum_numerator/sum_weights; \n        //     }\n            \n        //     sum_numerator = 0;\n        //     sum_weights = 0;\n        //     num_participants_counter = 0;\n        // }\n    }\n    \n    // Once an epoch has ended have a way of getting the final truth\n    // function getFinalTruth() public view returns (int ){\n    function getFinalTruth() public view returns (int){\n\n         if (sum_weights == 0){\n            return 0;\n        }\n        else {\n            return sum_numerator/sum_weights;\n        }\n        // int temp = sum_numerator/sum_weights; \n        // sum_weights = 0;\n        // sum_numerator = 0;\n        // return temp;\n        // }\n        // return finaltruth;\n        // if (sum_weights == 0){\n        //     return 0;\n        // }\n        // else {\n        //     finaltruth = sum_numerator/sum_weights; \n        //     sum_weights = 0;\n        //     sum_numerator = 0;\n        //     return finaltruth;\n        // }\n}\n\n    function getEpochNum() public view returns (uint) {\n        return epoch_num;\n    }\n\n    function reset() public {\n        sum_weights = 0;\n        sum_numerator = 0;\n\n    }\n\n    function getVals() public view returns (int,int){\n        return (sum_numerator, sum_weights);\n    }\n    \n    function Terminate() IsCreator public {\n        contract_state = ContractState.Terminated;\n    }\n    \n    \n}",
  "sourcePath": "/Users/sid_mukkamala/Documents/Thesis2/code/truffleprojects/truffleanew/contracts/truthdiscovery2.sol",
  "compiler": {
    "name": "solc",
    "version": "0.5.12+commit.7709ece9.Emscripten.clang"
  },
  "schemaVersion": "3.0.19",
  "updatedAt": "2020-10-16T09:39:47.627Z",
  "networkType": "ethereum",
  "devdoc": {
    "methods": {}
  },
  "userdoc": {
    "methods": {}
  }
}